:020000040000FA
:10000000FF23831690004C28A000030E8312A1004A
:10001000A20B462826181A28A6181A28A30B44282B
:100020001930A3002619172805162615442805128D
:100030002611442885169A202808AB0B3E282C0848
:10004000AB0028082902031940282A08031833287E
:10005000290703184028A900280203194028031C77
:10006000402829084228290203194028031C402857
:10007000A90028020319402803184028290842280B
:100080002808A9009B2085120530A2000B11210E23
:100090008300A00E200E0900D330810013309F0092
:1000A0000F3085008312850101309F000530A200CA
:1000B0001930A300073099000430AE20003803192E
:1000C000013EAA000530AE2000380319013EAB0006
:1000D000AC000730AE20AD000830AE20A6002618D8
:1000E00005160030A8008520A900A0308B00051956
:1000F0007D282614A6100516A42085198328A61489
:1001000026100512A4208520772826188B28A61CE7
:1001100008001F158C281F119F149F188D2805306B
:10012000A5000000A50B91281E0800380319013E08
:10013000A80008007D30A4000000000000000000BE
:100140000000A40B9C2808002608270203190800B9
:100150002608A700B4200830B820080083169B00AA
:100160001C141A088312080083169A0083120800D0
:100170008C1383169B001C158B1355309D00AA30E1
:100180009D009C1483128C1FC32883161C1183129C
:040190008B170800C1
:02400E00943FDD
:104200004D005A000A0004000100010001000000F6
:024210000000AC
:00000001FF
